{
  "contractName": "A",
  "abi": [
    {
      "inputs": [],
      "name": "a",
      "outputs": [
        {
          "internalType": "uint256",
          "name": "",
          "type": "uint256"
        }
      ],
      "stateMutability": "view",
      "type": "function",
      "constant": true
    },
    {
      "inputs": [],
      "name": "myAddress",
      "outputs": [
        {
          "internalType": "address",
          "name": "",
          "type": "address"
        }
      ],
      "stateMutability": "view",
      "type": "function",
      "constant": true
    },
    {
      "inputs": [
        {
          "internalType": "uint256",
          "name": "_a",
          "type": "uint256"
        }
      ],
      "name": "setA",
      "outputs": [],
      "stateMutability": "nonpayable",
      "type": "function"
    },
    {
      "inputs": [
        {
          "internalType": "uint256",
          "name": "_a",
          "type": "uint256"
        },
        {
          "internalType": "uint256",
          "name": "_b",
          "type": "uint256"
        },
        {
          "internalType": "uint256",
          "name": "_c",
          "type": "uint256"
        }
      ],
      "name": "input",
      "outputs": [
        {
          "internalType": "uint256",
          "name": "",
          "type": "uint256"
        }
      ],
      "stateMutability": "pure",
      "type": "function",
      "constant": true
    }
  ],
  "bytecode": "0x608060405234801561000f575f80fd5b506102e28061001d5f395ff3fe608060405234801561000f575f80fd5b506004361061004a575f3560e01c80630dbe671f1461004e57806326b85ee11461006c578063430d33351461008a578063ee919d50146100ba575b5f80fd5b6100566100d6565b6040516100639190610124565b60405180910390f35b6100746100db565b604051610081919061017c565b60405180910390f35b6100a4600480360381019061009f91906101c3565b6100e2565b6040516100b19190610124565b60405180910390f35b6100d460048036038101906100cf9190610213565b610103565b005b5f5481565b5f30905090565b5f8183856100f0919061026b565b6100fa919061026b565b90509392505050565b805f8190555050565b5f819050919050565b61011e8161010c565b82525050565b5f6020820190506101375f830184610115565b92915050565b5f73ffffffffffffffffffffffffffffffffffffffff82169050919050565b5f6101668261013d565b9050919050565b6101768161015c565b82525050565b5f60208201905061018f5f83018461016d565b92915050565b5f80fd5b6101a28161010c565b81146101ac575f80fd5b50565b5f813590506101bd81610199565b92915050565b5f805f606084860312156101da576101d9610195565b5b5f6101e7868287016101af565b93505060206101f8868287016101af565b9250506040610209868287016101af565b9150509250925092565b5f6020828403121561022857610227610195565b5b5f610235848285016101af565b91505092915050565b7f4e487b71000000000000000000000000000000000000000000000000000000005f52601160045260245ffd5b5f6102758261010c565b91506102808361010c565b925082820261028e8161010c565b915082820484148315176102a5576102a461023e565b5b509291505056fea2646970667358221220362561a159addb99e5f23992bedb6daa9cbb4fc820d0236868dd77df1e3063b564736f6c63430008140033",
  "immutableReferences": {},
  "source": "// SPDX-License-Identifier: GPL-3.0\npragma solidity ^0.8.18;\n\n\ncontract A {\n  function myAddress() public view returns(address) {\n    return address(this);\n  }\n\n  uint public a;\n\n  function setA(uint _a) public {\n    a = _a;\n  }\n\n  function input(uint _a, uint _b, uint _c) public pure returns(uint) {\n    return _a*_b*_c;\n  }\n}",
  "sourcePath": "C:\\Users\\DONG WOO BAK\\Desktop\\Truffle_LikeLion\\0612\\contracts\\A.sol",
  "compiler": {
    "name": "solc",
    "version": "0.8.20+commit.a1b79de6.Emscripten.clang"
  },
  "schemaVersion": "3.4.14",
  "updatedAt": "2023-06-12T02:22:53.081Z",
  "networkType": "ethereum",
  "devdoc": {
    "kind": "dev",
    "methods": {},
    "version": 1
  },
  "userdoc": {
    "kind": "user",
    "methods": {},
    "version": 1
  }
}